:020000040800F2
:1000000000000220210500087105000871050008A4
:100010007105000871050008710500080000000066
:100020000000000000000000000000007105000852
:100030007105000800000000710500087105000846
:1000400071050008710500087105000871050008B8
:1000500071050008710500087105000871050008A8
:100060007105000871050008710500087105000898
:100070007105000871050008710500087105000888
:100080007105000871050008710500087105000878
:100090007105000871050008710500087105000868
:1000A0007105000871050008710500087105000858
:1000B0007105000871050008710500087105000848
:1000C0007105000871050008710500087105000838
:1000D0007105000871050008710500087105000828
:1000E0007105000871050008710500087105000818
:1000F0007105000871050008710500087105000808
:1001000071050008710500087105000871050008F7
:1001100071050008710500087105000871050008E7
:1001200071050008710500087105000871050008D7
:1001300071050008000000000000000071050008C3
:1001400071050008710500087105000871050008B7
:1001500071050008710500087105000871050008A7
:100160007105000871050008710500087105000897
:100170007105000871050008710500080000000005
:1001800000000000710500080000000000000000F1
:100190007105000800000000000000007105000863
:1001A00000000000000000000000000071050008D1
:1001B0007105000871050008710500087105000847
:0401C00071050008BD
:1001C40010B5054C237833B9044B13B10448AFF38D
:1001D40000800123237010BD2000002000000000D7
:1001E400BC05000808B5034B1BB103490348AFF332
:1001F400008008BD0000000024000020BC050008A9
:1002040080B485B000AF78600023FB737B68002B5B
:1002140000F01A817B681B78072B00F212817B683F
:100224005B780F2B00F20D817B681B781A468B4B91
:1002340053F822301A687B685B785B00032101FA6B
:1002440003F3DB4319467B681B781846834B53F84A
:1002540020300A401A607B681B781A467F4B53F89B
:1002640022301A687B689B7819467B685B785B0050
:1002740001FA03F319467B681B781846774B53F849
:1002840020300A431A607B681B781A46734B53F874
:100294002230DA687B685B785B00032101FA03F3A0
:1002A400DB4319467B681B7818466C4B53F82030A7
:1002B4000A40DA607B681B781A46684B53F8223090
:1002C400DA687B685B7919467B685B785B0001FAC6
:1002D40003F319467B681B781846604B53F82030AB
:1002E4000A43DA607B689B78012B04D07B689B7897
:1002F400022B40F0AC807B681B781A46574B53F8AE
:1003040022305A687B685B78194601238B40DB43B3
:1003140019467B681B781846504B53F820300A4026
:100324005A607B681B781A464C4B53F822305A6843
:100334007B681B7919467B685B7801FA03F31946DD
:100344007B681B781846454B53F820300A435A60A3
:100354007B681B781A46414B53F822309A687B68B5
:100364005B7819460B465B000B44032101FA03F347
:10037400DB4319467B681B781846384B53F820300A
:100384000A409A607B681B781A46344B53F8223033
:100394009A687B68DB7819467B685B785B0001FAB6
:1003A40003F319467B681B7818462C4B53F820300E
:1003B4000A439A607B689B78022B48D17B685B7800
:1003C400DB08BB737B685B7803F007037B737B6894
:1003D4001B781A46214B53F82230BA7B083253F863
:1003E40022107B7B9B000F2202FA03F3DB431846A7
:1003F4007B681B781A46194B53F82230BA7B0140AC
:10040400083243F822107B681B781A46134B53F8C2
:100414002230BA7B083253F822107B689B791A4643
:100424007B7B9B0002FA03F318467B681B781A4611
:100434000A4B53F82230BA7B0143083243F82210A6
:1004440005E00123FB7303E00223FB7300E000BF1C
:10045400FB7B18461437BD4680BC70470000002063
:1004640080B485B000AF0346FB710B46BB711346E5
:100474007B710023FB73FB79072B2ED8BB790F2BE1
:100484002BD87B79002B12D0012B22D1FB79174A70
:1004940052F823309A69BB79012101FA03F3184613
:1004A400FB79124951F8233002439A6114E0FB7935
:1004B4000E4A52F823309A69BB791033012101FAAC
:1004C40003F31846FB79094951F8233002439A6132
:1004D40002E00123FB7300BF01E00123FB73FB7BFC
:1004E40018461437BD4680BC704700BF000000208A
:1004F40080B582B000AF3B4600221A60C3F80320E7
:1005040005237B700123BB703B461846FFF778FE3A
:10051400012205210020FFF7A3FFFEE70D488546D1
:10052400AFF300800C480D490D4A002302E0D45873
:10053400C4500433C4188C42F9D30A4A0A4C002329
:1005440001E013600432A242FBD300F011F8FFF77C
:10055400CFFFFEE700000220000000202000002062
:10056400DC050008200000203C000020FEE700001D
:1005740070B50D4D0D4C641BA4100026A64209D184
:100584000B4D0C4C00F018F8641BA4100026A64276
:1005940005D170BD55F8043B98470136EEE755F890
:1005A400043B98470136F2E7D4050008D405000857
:1005B400D4050008D8050008F8B500BFF8BC08BC8D
:1005C4009E467047F8B500BFF8BC08BC9E4670470D
:0405D400E901000831
:0405D800C501000851
:1005DC00000002400004024000080240000C0240EF
:1005EC00001002400014024000180240001C02409F
:0400000508000521C9
:00000001FF
